:020000040000FA
:06000000E8EF13F012000E
:020006001200E6
:0600080038EF10F01200B9
:01000E0000F1
:01000F0000F0
:03001000000000ED
:06001800FAEF0FF01200E8
:02001E000800D8
:10002000112900005A01000028000000F6280000F5
:10003000E50000001B0000000F000000C5010000EB
:100040000400000095280000000F0000610000007F
:100050003B280000000100005A0000000E000000D4
:10006000CA0100000100000028280000A2010000D1
:10007000130000000828000082010000200000009A
:1000800064EC06F04AD8E80EE66E030EE66E0ED873
:10009000E552E55201018D51FDE08D6BCFEC0BF087
:1000A000D4D957EC06F0C3EC09F0F4D71DEC06F0F8
:1000B00040EC07F030EC07F011501318E8AE02D016
:1000C000133404D01250105C1350115817E2020E72
:1000D000DB6A030EDB6A6AEC06F004E6EE0E105CE7
:1000E000000E115806E2020EDB2A030EF4E3DB2AAF
:1000F000F2D7DF2A010EDCE3DB2ADAD7040EE15C5B
:1001000002E2E16AE552E16EE0EF05F0956A836A8A
:10011000926A806A966A846A1200F8DFD4EC07F06B
:10012000C3EC0BF0F2EC0FF05BEC08F03CEC09F0E8
:1001300023EC06F0570EE66E120EE66EC0EC0EF0E3
:10014000E552E552660EE66EB70EE66E05EC0FF070
:10015000E552E552020EE66EE66A5EEC0FF0E552FD
:10016000E552320EE66EE66A83EC0FF0E552E55298
:1001700012009FEC05F00BE106EC06F002E27FECCA
:1001800006F005E399EC05F0EF508010806EE0EF8B
:1001900005F09FEC05F00DE106EC06F004E21250CC
:1001A0000308000E135405E399EC05F0EF5084109A
:1001B000846EE0EF05F09FEC05F00BE106EC06F035
:1001C00002E27FEC06F005E399EC05F0EF508310B6
:1001D000836EE0EF05F09FEC05F00BE106EC06F016
:1001E00002E27FEC06F005E399EC05F0EF1C8314C6
:1001F000836EE0EF05F09FEC05F00BE106EC06F0F6
:1002000002E27FEC06F005E399EC05F0EF1C8014A8
:10021000806EE0EF05F09FEC05F00DE106EC06F0D6
:1002200004E212500308000E135405E399EC05F0A4
:10023000EF1C8414846EE0EF05F0D2EC06F017ECAE
:1002400006F0EF0408E18CEC06F045EC07F017EC43
:1002500006F0EF6A08D08CEC06F04AEC07F017ECD9
:1002600006F0010EEF6EE0EF05F064EC06F02CEC0A
:1002700006F004E60E0E105C000E115815E2DECFFB
:10028000E6FFDDCFE6FF4AEC07F023EC06F0DECF19
:10029000E6FFDDCFE6FF45EC07F023EC06F0DF2AB2
:1002A000010EE5E3DB2AE3D7020EE15C02E2E16A3C
:1002B000E552E16EE0EF05F0000EE66EE66A69DFFA
:1002C000E552E5521200000EE66EE66AA4DFE55242
:1002D000E5521200020E30EF06F0020E37EF06F084
:1002E000070EFEEF05F0070E02EF06F0010E30EFED
:1002F00006F0010E37EF06F0030E30EF06F0030EA6
:1003000037EF06F0060EFEEF05F0060E02EF06F0E0
:100310006C0EE66E240EA3EC06F0680EE66E240E5C
:10032000E66E0D0EE66EE66AE4DB620EE66E240E05
:10033000A0EC06F05E0EE66E240EE66E0D0EE66E86
:100340005BEF07F012000101010E721905E1735114
:1003500003E1010EF36E01D0F36AF46A12000101A9
:10036000010E681904E1695102E1010E01D0000E8D
:10037000106E116A10BE116874EF06F0D2EC06F030
:10038000E652DF6A100EDF5C1AE2EA6ADF34FE0B27
:10039000EA36E96E5A0EE926010EEA22010EEE183F
:1003A0000CE1ED500AE1DF50EA6A1A0FE96E010E26
:1003B000EA22EFCF50F1010E03D0DF2AE3D7000E7F
:1003C000E552E0EF05F0D2EC06F0E65250EC06F014
:1003D000020EEE1808E1ED5006E14AEC06F0E66A7E
:1003E00088DB37EC07F050EC06F0EE50ED1004E13E
:1003F0004AEC06F0E66A7DDB50EC06F0010EEE18E2
:1004000004E1ED5002E137EC07F0E552D9D30101E8
:10041000010E761904E1775102E1010E01D0000EC0
:10042000106E116A10BE116874EF06F00101010E22
:10043000601904E1615102E1010E01D0000E106E5D
:10044000116A10BE116874EF06F0D2EC06F0080EC7
:10045000E1260101552B000E5623576B110E55193D
:1004600006E1565104E1556B566B010E576F415131
:10047000FC0A01E149D2010A01E12DD2F00A01E1B1
:10048000E1D1010A01E19DD1070A01E153D1010A3D
:1004900001E10ED1030A01E1F4D0010A01E1C0D06B
:1004A0000F0A01E188D0010A56E0030A1BE0FB0AAB
:1004B00015E0010A01E057D2E7EC06F014DB16DB89
:1004C00027DFFAEC06F003E00101FE0E416FDFECDE
:1004D00006F001E148D2E7EC06F0F9D1050E416FD4
:1004E0003F6BE4D03F0EE66E240E5FEC07F004E1B4
:1004F00054EC07F0EEEC06F001013F0504E154EC8A
:1005000007F0AEEC06F03ADF000911E001013F29E7
:10051000DE6EDD6AA1DB04E6030E105C000E1158EE
:1005200005E2BDEC06F00E0EEAEC06F03F2BDFEC28
:1005300006F001E118D201013F0502E10A0E06D0E2
:100540000A0E0101C303F350C4250101426F486F35
:100550003F6B060EAAD0230EE66E240E5FEC07F06A
:1005600002E164EC07F00ADF000912E0E0DB020FB1
:10057000D7EC06F0AFDB04E6020E105C000E11585B
:1005800005E2BDEC06F00F0EEAEC06F03F2B406BE7
:10059000DFEC06F001E1E7D101013F6BC3C143F19C
:1005A000C3C149F142514325476F4D6FE7EC06F057
:1005B0000101070E8ED10F0EE66E240E5FEC07F0E0
:1005C00004E154EC07F0EEEC06F001013F0503E115
:1005D00054EC07F0C3DBD2DE000913E0A8DB040F04
:1005E000E6DB040EDBCF10F0050E4FEC07F004E65F
:1005F000030E105C000E115803E2BFDB0E0EEADBA7
:100600003F2BDDDB01E1AFD101013F6B0A0E0101A0
:10061000C303F350C4250101456F4B6F080E45D04D
:10062000000EE66E240E5FEC07F002E164EC07F0CA
:10063000A5DE000914E07BDB060FB9DB060EDBCF7D
:1006400010F0070E4FEC07F004E6020E105C000EEF
:10065000115803E292DB0F0EBDDB3F2B406BAFDB8B
:1006600001E181D101013F6BC3C146F1C3C14CF12E
:1006700045514625446F4A6FAADB0101010E586FB0
:1006800011D0585111E1A3DBEF0EE66E230E5BDBB8
:10069000E70EE66E230E54DBBADEF350F41001E1F0
:1006A00062D1010141695FD10A0E416F90DB5BD1DC
:1006B000000E26DA01DE26DE42C151F147C152F1B9
:1006C000F6DADD0EE66E230E3EDB0A0E0101425D18
:1006D00003E3A2DB0E0E02D09FDB0F0E6CEC07F0E3
:1006E00003E352DB0E0E02D04FDB0F0EB1DB02E054
:1006F00042074707B1DB06E01FDB01010A0E546F1A
:10070000FD0E416F77DB04E017DB0101FE0E416F48
:100710005ADB07E001010A0E546F0EDB0101FC0EEB
:10072000416F0101425101E01ED151DBCCDD0101DD
:100730000B0ECFD0000EE4D9CDDDE4DD43C151F185
:1007400047C152F1B4DACA0EE66E230EFCDA0A0E85
:100750000101435D03E367DB0E0E02D064DB0F0E85
:10076000BBDB03E311DB0E0E02D00EDB0F0E70DBE2
:1007700002E04307470770DB07E0AFDDC6DD01019C
:100780000B0E546FFD0E416F35DB03E0B2DAFE0E47
:10079000416F19DB06E001010B0E546FAADAFC0E63
:1007A000416F0101435103E0475101E0DCD00FDB11
:1007B00048C142F149C143F14DC147F19ADA0C0EEB
:1007C00088D0000E9DD98CDD91DD44C151F145C129
:1007D00052F18BDB03E3DFDA0E0E02D0DCDA0F0E10
:1007E000B7DAB80EE66E230EABDA0A0E0101455DEC
:1007F00003E320DB0E0E02D01DDB0F0E29DB02E02F
:100800004407450729DB06E07FDA01010C0E546F2F
:10081000FD0E416FEFDA04E077DA0101FE0E416F61
:10082000D2DA07E001010C0E546F6EDA0101FC0E02
:10083000416F0101455101E096D0C9DA5ADD01014D
:100840000D0E47D0000E5CD94BDD56DD44C151F191
:1008500046C152F14ADB03E39EDA0E0E02D09BDA68
:100860000F0E76DAAD0EE66E230E6ADA0A0E01017D
:10087000465D03E3E6DA0E0E02D0E3DA0F0EE8DAA5
:1008800002E044074607E8DA06E042DA01010A0E10
:10089000546FFD0E416FAEDA04E03ADA0101FE0E4C
:1008A000416F91DA07E001010D0E546F31DA010159
:1008B000FC0E416F0101465102E0445154E187DAD8
:1008C0004BC145F14CC146F14AC144F121DA010165
:1008D000090E416F48D07BDAA40EE66E230E33DAA0
:1008E000010157510CE0535106E106DDF6DC010130
:1008F000010E536F04D003DDEDDC0101536B5FDAB1
:1009000032E0EBDCFCDC2DD0595108E1D5DCFADC1F
:100910005ADA22E0D8DC0101010E15D0590508E1B0
:10092000D9DC0101575118E0D8DC0101020E0BD0CF
:10093000020E595D0AE1D4DCD9DC45DA0DE0D9DCE0
:10094000D2DC0101030E596F07D0D6DC01015751EB
:1009500003E0D5DC0101596B32DA05E0B4DCD4D90F
:10096000D4DC54C141F1080EE15C02E2E16AE552D7
:10097000E16E26D162D970D904E6080E105C000E33
:10098000115818E200D908E1ED5006E1000EE66EBC
:10099000E66ADBEC00F004D0000EE66EE66A1BDCD3
:1009A00089D9010E2FD9010E29D9DF2A010EE3E3DF
:1009B000DB2AE1D7040EE15C02E2E16AE552E16E76
:1009C000FFD03BD949D904E6080E105C000E11583F
:1009D00019E2D9D808E1ED5006E1030EE66EE66AA9
:1009E000DBEC00F005D0030EE66EE66AEBEC00F0FF
:1009F00061D9040E07D9040E01D9DF2A010EE2E302
:100A0000DB2AE0D7040EE15C02E2E16AE552E16E26
:100A1000D7D0C8D9FD0EDBCF08F0FE0EDBCF09F032
:100A2000090E081801E109503EE0080E081801E11E
:100A3000095037E0070E081801E1095030E0060EB2
:100A4000081801E1095029E0050E081801E10950D4
:100A500022E0040E081801E109501BE0030E0818FB
:100A600001E1095014E0020E081801E109500DE0FF
:100A7000010E081801E1095006E0085016E109507E
:100A800014E1C00E13D0F90E11D0A40E0FD0B00E89
:100A90000DD0990E0BD0920E09D0820E07D0F80E11
:100AA00005D0800E03D0900E01D0FF0E89D03BD927
:100AB000010151514BD85EDF87D8A0D9060EE15C09
:100AC00002E2E16AE552E16E7BD02DD9010152517B
:100AD0003DD877DF79D899D9060EE15C02E2E16A68
:100AE000E552E16E6DD0FCD8FEEF06F0F9D805EFC7
:100AF00007F042EC0AF0E552E552E552E5521200E9
:100B0000E66EE66A60DCE552E5521200F3CF10F0C3
:100B1000F4CF11F0F350F410120011C0E6FF12C030
:100B2000E6FF13C0E6FF1200E66E010EE66E7EEFF2
:100B300007F09FD9000EE926010EEA22120032D9F1
:100B4000FE0EDBCF11F0800E11141200DE6EDD6A96
:100B500097D90A0E0D6E0E6A10C008F011C009F088
:100B600043EC12F004C010F005C011F0020E04C0F6
:100B7000DBFF030E05C0DBFF020EDBCFE6FF030E3B
:100B8000DBCFE6FF32D1FE0EDB50E66ED950020F0E
:100B90000ED9800EE76E020EDBCF10F0030EE75089
:100BA0001016116A020E10C0DBFF030E11C0DBFF2E
:100BB000D950020FE96EDACFEAFF800EEE1812006C
:100BC000E552E7CFD9FF1200E5520A0E106E116A06
:100BD0000D6E11C00EF0DECF08F0DDCF09F043EC52
:100BE00012F0040E08C0DBFF050E09C0DBFF040E87
:100BF000DBCFE6FF050EDBCFE6FFF7D0E66EE66A59
:100C00004AEF07F0E66EE66A45EF07F029D913349C
:100C1000120001013F51EA6AC30FE96E010EEA2298
:100C200050C1EFFF1200116A126A136A120021D933
:100C3000080EE926010EEA221200B4D8040EE126BD
:100C4000DE6ADD6A1200F40EE66E010EE66E56EC08
:100C500000F0E552E552120013D9D890115012005D
:100C6000E66EE66AB9EC00F0E552E5521200E66E77
:100C7000E66AFBEC00F0E552E55212005F0EE66E0C
:100C80000F0EE66E010EE66ED4EC09F0E552E55269
:100C9000E55212004D0EE66E240EE66EE66A120074
:100CA000D950FD0FE96EFF0EDA20EA6E1200FFDE6A
:100CB00065EF05F0E552E552FE0EDBCFE7FFE79E5C
:100CC000E746E7CFDBFF12006DD8020EE126DE6AB1
:100CD000DD6A1200020EDBCF10F0030E4FEF07F0BB
:100CE0000A0EE66EE66A81D010C0F3FF11C0F4FF71
:100CF00012006DEC01F085EC01F0010112001250C0
:100D00000708000E1354120073EC01F079EF01F0A4
:100D100073EC01F07FEF01F0FD0EDBCFE6FFFE0E7E
:100D2000DBCFE6FF12003ED8060EE12612000101DD
:100D30003F29E66ED950120063EC01F085EF01F017
:100D4000E66EE66AB8D0E66EE66AE66A79EF05F026
:100D5000E66EE66AD3D8010E80EF05F0C3C110F04D
:100D600062DFC3C1E6FFD9DE0E0EDEDE320EE66EB6
:100D7000240EE66E0F0EE66E9ED050C110F053DFCB
:100D800050C1E6FF8DEF05F047C110F04CDF47C1C1
:100D9000E6FF8DEF05F044C110F045DF44C1E6FFEA
:100DA0008DEF05F0D9CFE6FFE1CFD9FF1200E96E54
:100DB000DACFEAFFE552E750EE6EED6A120007EC7B
:100DC00002F086EF05F0AFEC01F086EF05F0020EC1
:100DD00080EF05F03F25A8DE09EF06F0340EE66E41
:100DE000240EE66E0E0EE66E66D013DEE552E55278
:100DF000E66E1200A3EC01F086EF05F0BBDDE552D4
:100E0000020E00DF020EFEEF05F0DBDDE552050EFF
:100E1000F9DE050EFEEF05F042C110F004DF42C11D
:100E2000E6FF8DEF05F043C110F0FDDE43C1E6FFA4
:100E30008DEF05F045C110F0F6DE45C1E6FF8DEF00
:100E400005F046C110F0EFDE46C1E6FF8DEF05F07C
:100E50006BDE01015751120016EC02F086EF05F02F
:100E6000FD0EDBCF12F0FE0EDBCF13F0120012DF0F
:100E700022D0FD0EDBCFE9FFFE0EDBCFEAFF120032
:100E8000DECF10F0DDCF11F01200EBEC00F0E552F8
:100E9000E5521200DBEC00F0E552E5521200DBCF28
:100EA00011F0D89011501200010E2ADE370EE66EB6
:100EB000240EA0EF06F0010EE66E79EF05F043DF99
:100EC0000101402B3F511200010E1ADE1D0EE66E8D
:100ED000240E36DF3EEF06F03BDFD50EE66E230E26
:100EE0002FDF0A0E0101475D1200E1DEC20EE66E41
:100EF000230E29DF0A0E0101445D1200F4EC09F013
:0A0F0000146E060EE15E145012009C
:060F0A00AAEC0BF08CDBE9
:100F100011AE02D01268136831DB13E29ADB5ADBA0
:100F200004E6050E105C000E115806E2020EDB2AE4
:100F3000030EF5E3DB2AF3D7DF2A010EE8E3DB2A11
:100F4000E6D7040EE15C02E2E16AE552E16ECCD242
:100F5000AAEC0BF069DB11AE02D0126813680EDB4D
:100F600013E277DB37DB04E6EE0E105C000E11585F
:100F700006E2020EDB2A030EF5E3DB2AF3D7DF2AB3
:100F8000010EE8E3DB2AE6D7040EE15C02E2E16A47
:100F9000E552E16EA9D2E4DBF00B7BDBFE0EDB3821
:100FA000F00B811288DAA0D2D2DB936A190E5FDBD4
:100FB0000F0E8116F80E81160F0E8116300E69DBAA
:100FC000300E67DB300E65DB818A75DA280EE66E3F
:100FD000E2DFE5520C0EE66EDEDFE552E55284D22A
:100FE000ACDB010EDB6A819459DBE76E010EE7CFC3
:100FF000DBFF819653DBDF6E010EDB50DF12819643
:10100000010E60DADF50106E020EE15C02E2E16A6E
:10101000E552E16E105068D29ADBDF6AE1DFDF6EE5
:10102000DFBEFCD7DF50E5525FD29ADB81128186AA
:10103000050E48DA8196050E45DA56D250DA8194CB
:10104000050E40DAA7DA50D24ADA8184050E3ADA80
:10105000A1DA819449D24AD349D341DAFD0EDBCFDC
:10106000F6FFFE0EDBCFF7FF0800F5500DE0FD0E9A
:10107000DBCFF6FFDB2AFE0EDBCFF7FF01E3DB2A37
:101080000800F5502ADBEAD72FD261DBFD0EDB50DA
:101090000F0B106EFE0EDB50010B400DF3501024B1
:1010A000DF6E7F0EDF14800FDF6EDFCFE6FFC6DF5F
:1010B000E552E55219D2010EE66EC0DFE552E66A4E
:1010C000E66AB6EF0BF00BDA050EE126010EF36EC1
:1010D000DB6EBFDA040EDB6ADF6ADFCF10F0116A65
:1010E00010BE1168A8DA11501318E8AE02D01334FC
:1010F00004D01250105C135011581FE2FD0EDBCFCC
:1011000010F0FE0EDBCF11F0126A136A11AE02D09E
:1011100012681368D950010FE96EDACFEAFF10C0E8
:101120000BF011C00CF012C00DF013C00EF0EADA93
:101130002DEC13F0F0DADF2AD0D7010EDBCF10F060
:10114000020EDBCF11F0030EDBCF12F0040EDBCF6B
:1011500013F010C006F011C007F012C008F013C061
:1011600009F0050EE15C02E2E16AE552E16EBCD1F4
:10117000E4DAFB0EDBCF10F0FC0EDBCF11F0FD0E3E
:10118000DBCF12F0FE0EDBCF13F010501110121057
:10119000131003E1300EA1DA36D0D950FB0F23DA59
:1011A00001E627DA05E22D0E98DAD950FB0FD9D9DE
:1011B000DE52070EDD6E46DAE8AE02D0103403D000
:1011C000E750D88010541FE226DA14BE156880D983
:1011D00045DA6DDA17DA0BE0010EDF6EDB04186E0C
:1011E000196A18BE196892D962DAAED903D0DF50F5
:1011F00002E0300E72DA0FDA14BE156869D9D950E0
:10120000FB0F7BD9D8D7020EE15C02E2E16AE5521E
:10121000E16E6AD164D9D6D9D950F90F62DAEECF2E
:10122000E6FFEECFE6FFEECFE6FFEFCFE6FFA0DF73
:10123000E552E552E552E55257D151D9C3D9FB0EDB
:10124000DBCFE6FFFC0EDBCFE6FF07DFE552E55222
:101250004BD145D97BCF10F07CCF11F0040ED89044
:1012600010361136E806FBE1A1D9FE0EDBCFEFFF09
:101270007D2B000E7E2338D16ADADF6ADFCF10F0D3
:10128000100EE76E1018E8AE02D0E73402D0E75037
:10129000105C18E2DFCFE9FFEA6AE9BEEA68410EB6
:1012A000E9260F0EEA22200EEF6EDFCFE9FFEA6A91
:1012B000E9BEEA68510EE9260F0EEA22200EEF6E13
:1012C000DF2ADCD7E55210D142DA0F014051030A80
:1012D00029E0010A1CE0030A0CE0010A32E14ADAC3
:1012E000080EDF5C03E2DF50C8D9FAD70F01010E08
:1012F00017D0080EE66EE66A18D9080EDF5C04E225
:10130000080EDF24BAD9F9D70F01020E09D01ADA74
:10131000080EDF5C03E2DF50B6D9FAD70F01030EE7
:10132000406F10D0080EE66E010EE66EFED8080E75
:10133000DF5C04E2080EDF24A6D9F9D70F01406B69
:1013400001D0406BE552D0D002DA0F014051010AC2
:101350000DE0010A15E10EDA100EDF5C03E2DF504A
:101360008CD9FAD70F01010E406F0BD0EBD9100EBC
:10137000DF5C03E2DF5087D9FAD70F01406B01D061
:10138000406BE552B1D0E3D9F5D9100EDF5C03E232
:10139000DF5073D9FAD7D6D9100EDF5C03E2DF50E5
:1013A00072D9FAD7E552A0D09AD8C2D8FC0EDB5039
:1013B0000A0802E1610E05D0FC0EDB500D0805E1C4
:1013C000640EF36EFC0EF3CFDBFF7BCF10F07CCF0F
:1013D00011F0040ED89010361136E806FBE1E6D87D
:1013E000FC0EDBCFEFFF80D0A8D9A2D8F90EDBCF5F
:1013F00010F0FA0EDBCF11F01ED9105011101210A0
:10140000131003E1300E0CD936D0D950F90FEBD8B8
:1014100001E6EFD805E22D0E03D9D950F90FA1D876
:10142000DE52070EDD6E0ED9E8AE02D0103403D0C6
:10143000E750D88010541FE2EED814BE156848D883
:101440000DD940D9DFD80BE0010EDF6EDB04186E3A
:10145000196A18BE19685AD835D976D803D0DF5022
:1014600002E0300EDDD8D7D814BE156831D8D95077
:10147000F90F43D8D8D7020EE15C02E2E16AE552E7
:10148000E16E32D02CD854D8FB0EDBCFF6FFFC0E29
:10149000DBCFF7FF0800F5500DE0FB0EDBCFF6FFCA
:1014A000DB2AFC0EDBCFF7FF01E3DB2A0800F55057
:1014B000B7D8EAD719D08186010ED9D88196010E06
:1014C00037EF0BF0E66EE66AE66AE66A1EDD56D195
:1014D00014C0E6FF15C0E6FF10D994EF0BF0D9CF8A
:1014E000E6FFE1CFD9FF1200E552E7CFD9FF1200A6
:1014F000EA22EF50F2D8DF2A1200F3D8AFD802D98F
:1015000065EC13F008D9010EDB06120018C0E6FFE7
:1015100019C0E6FFF2D806C014F007C015F008C0E5
:1015200016F009C017F02EEF0BF020D9DF6A120079
:10153000FE0EDB50010B0F017B6F7C6BFD0EDB5051
:101540000F0B7D6F7E6B1200DBCF09F065EC13F0A3
:10155000EBD8300E1026000E11221222132210504A
:101560001200BFD8000EEE6CEF1EEE22EF1EEE2230
:10157000EF1EEF22ED52ED52ED521200D950FB0F4B
:10158000B0D8EE50105CEE501158EE501258EE509C
:1015900013581200FE0EDBCFE6FF47DDE552FE0ECC
:1015A000DB38F00BE66E41DDE5521200410E1026ED
:1015B0000F0E112210500F017D25E96E11507E2172
:1015C000EA6E1200FD0EDBCFE6FFFE0EDBCFE6FF7C
:1015D000B6EF0BF0020EDBCF10F0030EDBCF11F0F5
:1015E000D890115012007DD8D890030EEB50000A0D
:1015F0001200000EEE5C000EEE58000EEE58000ECB
:10160000EE581200DBCF09F065EC13F0065007101E
:10161000081009101200010EDB04146E156A120086
:10162000E66E17DEE5521200DECF10F0DDCF11F0CE
:10163000126A136A1200FB0EDBCF12F0FC0EDBCF36
:1016400013F01200010EDBCF10F0000EE76E101841
:101650001200020EDB6A030EDB6A120006C00BF0FA
:1016600007C00CF008C00DF009C00EF01200E66EC5
:10167000E66AE66AE66A6CDC81D0EA6A410FE96EE6
:101680000F0E78EF0AF0EA6A510FE96E0F0E78EF4D
:101690000AF0811210DF0F0E811612000F0E12DFFA
:1016A0000F0E811281860EDF0F0E81141200FB0EC9
:1016B000DBCF06F0FC0EDBCF07F0FD0EDBCF08F032
:1016C000FE0E1200F90EDBCF06F0FA0EDBCF07F0AC
:1016D000FB0EDBCF08F0FC0E1200E66EBDDCE5521F
:1016E0001200E96EFF0EDA20EA6E1200F8DEFE0E3E
:1016F000DBCFE6FFA9DCE552F7D60A0EE66EE66A16
:10170000E2DC3CD0EECF06F0EECF07F0EECF08F0F3
:10171000EFCF09F0120005C0EDFF04C0EDFF03C0DC
:10172000EDFF02C0EFFF120006C010F007C011F07D
:1017300008C012F009C013F01200D1DE020EE1263B
:10174000DF6A1200E66A010EE66E95EF0AF0C7DE68
:10175000E6521200C4DE040EE126DE6ADD6A1200E3
:10176000BEDE0F0E8116FE0EDB5012008EDCE5523F
:10177000E5521200E66AE66A95EF0AF0E552E55294
:06178000E552E5521200E3
:0A1786000F0E946E82681200070E29
:101790009410946EDF0E9414946E826812003ED9F9
:1017A00068D901E661D915E24BD9826E58D93FD983
:1017B00001E65AD909E225D902E16CD901D083D9D1
:1017C00065D9F5E3DB2AF3D7DF2A010EE9E3DB2A4B
:1017D000E7D7040EE15C02E2E16AE5523BD11ED993
:1017E00048D904E6020E105C000E115813E26FD9BE
:1017F0001ED901E639D909E204D902E14BD901D059
:1018000062D944D9F5E3DB2AF3D7DF2A010EE8E3F6
:10181000DB2AE6D7040EE15C02E2E16AE5521AD166
:10182000FDD81DD901017A1D8214826E18D9FFD806
:1018300001E61AD909E2E5D802E12CD901D043D951
:1018400025D9F5E3DB2AF3D7040EE15C02E2E16A75
:10185000E55200D1E3D803D9010EDE6EDD6A37D937
:10186000E6D804E6030E105C000E115809E2C9D850
:1018700002E110D901D027D909D9F2E3DB2AF0D748
:10188000040EE15C02E2E16AE552E4D0C7D824D953
:10189000FD0EDBCF12F0FE0EDBCF13F0115013184C
:1018A000E8AE02D0133404D01250105C135011581B
:1018B00011E2D5D8BCD804E6EE0E105C000E11582B
:1018C00004E2E4D8F7E3DB2AF5D7DF2A010EDFE3F1
:1018D000DB2ADDD7040EE15C02E2E16AE552BAD010
:1018E0009DD8C7D801E6C0D820E2AAD8826EB7D862
:1018F0009ED801E6B9D80BE2E6D883D804E171D8C6
:10190000010EEE6EED6AC2D8F3E3DB2AF1D7825006
:10191000816EE80EE66E030EE66EB8DFE552E55224
:10192000DF2A010EDEE3DB2ADCD7040EE15C02E2F3
:10193000E16AE5528FD0D9CFE6FF040EE12684B0EC
:1019400005D001015A2B000E5B2303D001015A6B15
:101950005B6B84B204D05C2B000E5D2302D05C6B09
:101960005D6B84B404D05E2B000E5F2302D05E6BEF
:101970005F6B82B004D0602B000E612302D0606BDD
:10198000616B82B204D0622B000E632302D0626BC3
:10199000636B82B404D0642B000E652302D0646BA9
:1019A000656B82BA04D0662B000E672302D0666B8B
:1019B000676B81B004D0682B000E692302D0686B7E
:1019C000696B040EE15C02E2E16AE55243D0070E66
:1019D0009610966E270E9410946E010E9310936ECF
:1019E00012007AD8D89010361136D89010361136A9
:1019F000020EDB501024E96E030EDB50112071EF54
:101A00000DF0020EDBCFE9FF030EDBCFEAFF7E0E07
:101A1000E926010EEA22EF5082141200D9CFE6FF28
:101A2000E1CFD9FF040EE126DE6ADD6A1200020E64
:101A3000DBCF10F0030EDBCF11F0D8901150120065
:101A4000DECFE9FFDDCFEAFF7A0EE926010EEA22BA
:101A5000EF1C1200E16EE552E7CFD9FF1200020E33
:101A6000DB6A030EDB6A1200040E105C000E1158D4
:101A7000120032D8D89011501200D8901436153672
:101A8000120012C0EEFF13C0EDFF1200020EDB2A9F
:101A9000030E1200DECF14F0DDCF15F0EEDFEDDF28
:101AA000020EDB501424E96E030EDB50152019D80A
:101AB000EECF12F0EFCF13F0010E1226000E13221C
:101AC00090DF41EF0DF08DDFEE6AED6A1200B8DFB6
:101AD0008214826E2FEF0DF0DECF10F0DDCF11F00B
:101AE0001200EA6ED890E936EA365A0EE926010E5F
:041AF000EA221200D4
:0C1AF4000AD9020EE126FE0EDB500F0B9B
:101B0000DF6EFE0EDB380F0B0A0D14D902E2E16A1C
:101B1000E552E16E1050FED0F8D8020EE12613D93E
:101B20000550DF6E10D90950100D04D902E2E16AA8
:101B3000E552E16E1050EED094869488C79EC79C03
:101B4000C690C692C694C686310EC86EC68A12006A
:101B50000ED9D00FC96E9EA6FED7DCD008D9A00F33
:101B6000C96E9EA6FED7D6D09E96C5809EA6FED7ED
:101B700012009E96C5849EA6FED71200F8D8C96EA4
:101B80009EA6FED7C7D09E96C5869EA6FED7C950F4
:101B900012009E96C59AC5889EA6FED712009E96F4
:101BA000C58AC5889EA6FED71200AFD8D4D8010E2C
:101BB000C96FE85004E0C550400BFAE0F8D7FE0EBC
:101BC000A0D8010EC96FE85004E0C550400BFAE000
:101BD000F8D7FD0EDBCFE6FF9FDFE552E66ECCD8EF
:101BE000010EC96FE85004E0C550400BFAE0F8D789
:101BF000C0DF90D08AD8B5D8010EC96FE85004E094
:101C0000C550400BFAE0F8D7FE0E7BD8010EC96F25
:101C1000E85004E0C550400BFAE0F8D77FD8010E39
:101C2000C96FE85004E0C550400BFAE0F8D7FC0E4D
:101C300068D8010EC96FE85004E0C550400BFAE0C7
:101C4000F8D797DF67D061D8E65285D8010EC96F03
:101C5000E85004E0C550400BFAE0F8D7FE0E51D82A
:101C6000010EC96FE85004E0C550400BFAE0F8D708
:101C70007BDF010EE66E6CDFE5520101010EC96FDC
:101C8000E85004E0C550400BFAE0F8D77CDFDF6E87
:101C9000DFCFE6FF2FDFE552DF6EDF50E5523AD0AF
:101CA00034D8E6525ED8010EC96FE85004E0C55042
:101CB000400BFAE0F8D7FE0E24D8010EC96FE850A9
:101CC00004E0C550400BFAE0F8D728D8010EC96FE0
:101CD000E85004E0C550400BFAE0F8D745DF010EAC
:101CE000E66E3CDFE5520101010EC96FE85004E0E9
:101CF000C550400BFAE0F8D746DFDF6EDF50E55203
:101D000009D0DBCFE6FFBCEF0EF0D9CFE6FFE1CF85
:101D1000D9FF1200E552E7CFD9FF1200FD0EDBCF4D
:101D200010F0FE0EDBCF11F00001116A1050E66ECC
:101D3000BCEF0EF0010EF3CFDBFFDB50DF24106EA3
:101D4000020EE15C12000A0E106E0E6EFE0EDBCF6C
:101D500009F0F6EF13F008DFE66AFADEE55201015A
:101D6000120002DFE66AFADEE55201011200CDDF61
:101D70009E96FE0EDB50120001DFE55201011200BB
:101D8000F1D8D59EFD0EDBCF82F1FE0EDBCF83F1C5
:101D9000D59C05D9D59AD586F28AF294F184D58E50
:101DA000E6D0D59E1200FBD8D58E1200DBD8CD90A0
:101DB000FD0EDBCF84F1FE0EDBCF85F1F7D89D80E1
:101DC0009E909F90CD8ECD8CCD98CD9ACD96CD9274
:101DD000CD80CDD0EBD8CD801200CD901200C2D8EE
:101DE000CA94CC6AFE0EDB500101866F876BCB6E06
:101DF0009D829E929F92CA90CA92CA84B8D086C190
:101E0000CBFFCA841200CA941200ACD8B190FD0E68
:101E1000DBCF88F1FE0EDBCF89F1CFD80750B36E50
:101E2000CCD8B5D8B26EA082A192A292B18EB19850
:101E3000B19AB192B1809BD0C0D80350B26EBDD8D8
:101E40009ED8B36EB1801200B19012000101922BA6
:101E5000000E93239A51925D9B51935904E3926B28
:101E6000936B010E8A6F12000101942B000E9523D3
:101E70009C51945D9D51955904E3946B956B010EB3
:101E80008B6F12000101962B000E97239E51965DD9
:101E90009F51975904E3966B976B010E8C6F12005C
:101EA0000101982B000E9923A051985DA1519959D9
:101EB00004E3986B996B010E8D6F120053D8FD0EE1
:101EC000DBCF9AF1FE0EDBCF9BF10101926B936B9E
:101ED0008A6B4DD047D8FD0EDBCF9CF1FE0EDBCFD9
:101EE0009DF1050E0D6E0E6A9CC108F09DC109F0B2
:101EF00043EC12F008C09CF109C09DF10101946B04
:101F0000956B8B6B34D02ED8FD0EDBCFA0F1FE0E7F
:101F1000DBCFA1F10A0E0D6E0E6AA0C108F0A1C1BF
:101F200009F043EC12F008C0A0F109C0A1F10101D1
:101F3000986B996B8D6B1BD0186A1650135C106EE2
:101F400017501458116E18501558126E0C6A010E65
:101F50000D6E0E6A10C007F011C008F012C009F033
:101F600069EF12F0D9CFE6FFE1CFD9FF1200E552B9
:101F7000E7CFD9FF120013681468156A120007C072
:101F800010F008C011F009C012F00750120003C091
:101F900010F004C011F005C012F00350120014D864
:101FA0000350D66E11D8EBDFD76E120014D807504D
:101FB000CF6E11D8ECDFCE6E1200DDDF88C116F0D7
:101FC00089C117F09CEF0FF0D6DF82C116F083C1F4
:101FD00017F09CEF0FF0CFDF84C116F085C117F02A
:041FE0009CEF0FF073
:0C1FE400F28ED08EF28C1200F19CF29272
:101FF000F2881200D8CFE4FFE0CFE4FFE46E6CD8A3
:1020000000EE00F0100EE80403E3EECFE4FFFBD790
:1020100000EE10F00A0EE80403E3EECFE4FFFBD776
:10202000E652F2B481D89EB086D89EB28BD8A1B2C7
:1020300090D8F2B2F2929EAA03D09E9A25EC11F0AB
:10204000E55200EE19F00A0EE80403E3E5CFEDFFD8
:10205000FBD700EE0FF0100EE80403E3E5CFEDFF31
:10206000FBD74FD8E550E5CFE0FFE5CFD8FF100014
:1020700033D800EE00F0100EE80403E3EECFE4FFE7
:10208000FBD700EE10F00A0EE80403E3EECFE4FF06
:10209000FBD7E652F2B448D89EB04DD89EB252D883
:1020A000A1B257D8F2B2F2929EAA03D09E9A25EC22
:1020B00011F0E55200EE19F00A0EE80403E3E5CF53
:1020C000EDFFFBD700EE0FF0100EE80403E3E5CFC1
:1020D000EDFFFBD716D81100DACFE4FFE2CFDAFF2D
:1020E000E9CFE4FFEACFE4FFF6CFE4FFF7CFE4FF68
:1020F000F5CFE4FFF3CFE4FFF4CFE4FFFACFE4FF42
:102100001200E5CFFAFFE5CFF4FFE5CFF3FFE5CF0F
:10211000F5FFE5CFF7FFE5CFF6FFE5CFEAFFE5CF27
:10212000E9FFE5CFDAFF1200D1EC0EF0F294D3EC28
:102130000EF026EF0FF0EDEC0EF09E90EAEC0EF0B4
:1021400034EF0FF003EC0FF09E92FFEC0EF042EF35
:102150000FF024EC0FF0A1921CEC0FF050EF0FF0F9
:10216000B06A810EAF6EAC8AAC94B886AC98AB8E78
:10217000AB889E9A9D8A9F9A949C948E120070D8E8
:10218000040EE126DE6ADD6ADECF10F0DDCF11F04D
:10219000FD0EDBCF12F0FE0EDBCF13F01150131843
:1021A000E8AE02D0133404D01250105C1350115812
:1021B0001DE2020EDB6A030EDB6A020EDBCF10F0BB
:1021C000030EDBCF11F0D890115004E6EE0E105C38
:1021D000000E115806E2020EDB2A030EEEE3DB2AA4
:1021E000ECD7DF2A010ED0E3DB2ACED7040EE15C68
:1021F00002E2E16AE552E16E38D032D89EA8FED7FD
:10220000FE0EDB50AD6E9E9830D02AD832D80AE050
:1022100030D8E66EF2DFE552FD0EDB2AFE0EF6E365
:10222000DB2AF4D722D01CD812D80EE010D8E66EE4
:10223000E4DFE552FD0EDBCFF6FFDB2AFE0EDBCF3F
:10224000F7FFF2E3DB2AF0D710D041EF11F0FD0EDB
:10225000DBCFF6FFFE0EDBCFF7FF0800F5501200D4
:10226000D9CFE6FFE1CFD9FF1200E552E7CFD9FF82
:102270001200FD0EDBCFE9FFFE0EDBCFEAFFEF50D1
:0222800012004A
:0E228200D9CFE6FFE1CFD9FFE652AE50DF6EB6
:10229000DFCFE6FFFDEC10F0E5520101A451050A85
:1022A0002AE0010A21E0070A11E0010A0AE0020A15
:1022B00002E0010A2AE1FF0EDF5C28E1A76B020EB3
:1022C00022D0FF0EDF5C15E1030E1DD0A751EA6A94
:1022D000810FE96E000EEA22DFCFEFFFA72BA95195
:1022E000A75D14E3040E0FD0FE0EDF5C02E1050EC5
:1022F0000AD0010E08D0FE0EDF5C04E1010EA56FCE
:10230000A46B04D0010EA46F01D0A46BE552E5527A
:10231000E7CFD9FF120012000101A50532E1750EC9
:10232000E66E240EE66EE66AE66A42EC0AF0E552D4
:10233000E552E552E5520001806B0101A95100010F
:10234000805D15E28051EA6A810FE96E000EEA2293
:10235000EFCF10F0116A126A136A10C0E6FF1BD8A3
:10236000030E8003F3500ED80001802BE6D7A4C1E2
:1023700010F0116A126A136AA4C1E6FF0CD80F0E9E
:1023800001D81200E66EE66AF4EC09F0146E060E4F
:10239000E15E1450120011C0E6FF12C0E6FF13C048
:0423A000E6FF120042
:0C23A4005354414E442042590050323A3C
:1023B0002059454C4C4F570050323A204752454522
:1023C0004E0050313A205245440050313A20594590
:1023D0004C4C4F570050323A205245440050313A4D
:1023E00020475245454E0050524553532023005438
:1023F000494D45204E4F5420414C524541445900CF
:102400005048415345325F59454C4C4F573A005064
:1024100048415345325F475245454E3A0028312DD9
:102420003929005048415345315F59454C4C4F576D
:102430003A005F005F5F002831302D3939290050A4
:1024400048415345315F475245454E3A00202020D0
:102450002020202020202020202020202000282391
:102460002900535441525400282A2900534554202E
:1024700054494D45002020202020202020202020CD
:06248000202020202000B6
:0A248600006A0EAE4CEF12F00D6C70
:102490000E1EE86A0E22001E09AE54EF12F0086C00
:1024A000091EE86A0922001EC2EC13F009BE64EF9F
:1024B00012F000AE000C086C091EE86A0922046CD8
:1024C000051EE86A0522000C00BE5BEF12F00188D1
:1024D000FF0C006A0EAE74EF12F00C6C0D1E0E1E97
:1024E000E86A0D220E22001E09AE7EEF12F0076C84
:1024F000081E091EE86A08220922001E89EC13F052
:1025000009BE91EF12F000AE000C076C081E091E08
:10251000E86A08220922036C041E051E0422052213
:0C252000000C00BE85EF12F00188FF0CDB
:04252C001E0EF66E1B
:10253000000EF76E000EF86E01010900F550BA6F3B
:102540000900F550BB6F03E1BA6701D03DD0090027
:10255000F550B56F0900F550B66F0900F550B76F2B
:1025600009000900F550E96E0900F550EA6E09000E
:1025700009000900F550B86F0900F550B96F09005E
:102580000900F6CFBCF1F7CFBDF1F8CFBEF1B5C170
:10259000F6FFB6C1F7FFB7C1F8FF0101B85302E17A
:1025A000B95307E00900F550EE6EB807F8E2B90735
:1025B000F9D7BCC1F6FFBDC1F7FFBEC1F8FF0101ED
:0A25C000BA07000EBB5BBFD7120084
:0625CA00010E926E0E0EE0
:1025D000C16EC26A040EC06EC2801200D9CFE6FF7F
:1025E000E1CFD9FF020EE126DE6ADD6AC282C2B205
:1025F000FED7C450DE6EDD6ADECF12F0DDCF13F001
:10260000D89012361336D89012361336060EC3CF32
:10261000E7FF070B04E0E742E79EE806FCE1E7502E
:102620001224106E000E132010C0DEFFDD6EDECF10
:1026300061FFDDCF62FFDECF10F0DDCF11F010C003
:10264000F3FF11C0F4FF020EE15C02E2E16AE55221
:0A265000E16EE552E7CFD9FF12005A
:06265A0006500B02F3CF55
:1026600002F0F4CF03F00C02F3500326000EF42026
:10267000046E06500D02F3500426000EF420056E81
:1026800006500E02F350052607500B02F3500326A6
:10269000F4500422000E052207500C02F3500426C9
:1026A000F450052207500D02F350052608500B0286
:1026B000F3500426F450052208500C02F35005266E
:0A26C00009500B02F350052612002A
:0626CA00056A046A036AC0
:1026D000026A200EE76ED8900636073608360936AD
:1026E00002360336043605360B50025C0C50035894
:1026F0000D5004580E50055809E30B50025E0C5063
:10270000035A0D50045A0E50055A062AE72EE4D7F4
:022710001200B5
:0E271200056A046A036A180EE76ED89007364F
:10272000083609360336043605360C50035C0D5066
:1027300004580E50055807E30C50035E0D50045A20
:0C2740000E50055A072AE72EEAD71200B7
:04274C00CA94CA90D1
:10275000CA829B0ECB6EBD98BD9ABE6ABD9CBD9EC3
:10276000BD90BD92BD84BD869494CA841200D9CF19
:10277000E6FFE1CFD9FFFE0EDB50BE6EE552E7CF9C
:04278000D9FF12006B
:0C278400056A046A100EE76ED890083653
:102790000936043605360D50045C0E50055805E325
:1027A0000D50045E0E50055A082AE72EF0D712008D
:1027B000800EF36E00EE00F00F0E01D81200EA60FA
:1027C00002D0EE6AFCD7F350E9601200EE6AFCD743
:1027D0001EEE00F02EEE00F0F86A019C96EC12F06E
:0C27E00003EC00F040EC00F0FBD712000E
:0427EC00056A080E64
:1027F000E76ED890093605360E50055C02E3056E8B
:08280000092AE72EF7D71200A8
:082808000000000000000000C8
:1028100000000000000000000000000000000000B8
:082820000100010001000100AC
:082828000000000000000005A3
:0B283000050000000000000000000098
:05283B00010204081079
:102840002040800000000000000000C0F9A4B09902
:102850009282F880900102034104050642070809AC
:10286000432A004544010203040207080903030345
:10287000030408060805414243FF0000FF00000072
:102880000000000000000000000000000000000048
:05289000000000000043
:0B289500000000000000000010101008
:1028A000101010101018181818181818181C1C1CC4
:1028B0001C1C1C1C1C1E1E1E1E1E1E1E1E1F1F1F3F
:1028C0001F1F1F1F1F00000000000000000000006D
:1028D00000000000000000000000000000000000F8
:1028E00000000000000000000000000000000000E8
:0628F000000000000000E2
:0A28F600000000D000222222072576
:1029000009100001000000000000000000000000AD
:0129100000C6
:0F291100000000000000000000000000000000B7
:1029200000000000000000000000000000000000A7
:092930000010204080010204089F
:020000040030CA
:0100010002FC
:0100020003FA
:010003001EDE
:010005008179
:010006008178
:010008000FE8
:01000900C036
:01000A000FE6
:01000B00E014
:01000C000FE4
:01000D0040B2
:00000001FF
